:100000000C945D000C9485000C9485000C94850084
:100010000C9485000C9485000C9485000C9485004C
:100020000C9485000C9485000C9485000C9485003C
:100030000C9485000C9485000C9485000C9485002C
:100040000C9435040C9485000C9403040C94DD038B
:100050000C9485000C9485000C9485000C9485000C
:100060000C9485000C94850000000008000201003B
:100070000003040700000000000000000000000072
:10008000250028002B0000000000240027002A0083
:10009000040404040404040402020202020203032E
:1000A0000303030301020408102040800102040836
:1000B00010200102040810207F0411241FBECFEF7E
:1000C000D8E0DEBFCDBF12E0A0E0B1E0ECEFF1E19F
:1000D00002C005900D92A031B107D9F722E0A0E14E
:1000E000B2E001C01D92A53EB207E1F710E0CDE5F8
:1000F000D0E004C02197FE010E94F608CC35D1075C
:10010000C9F70E94F5040C94FC080C9400000F93AE
:100110001F93CF93DF93EC018C01060F111DC017C5
:10012000D10769F08091DF029091E0026991DC01D2
:10013000ED91FC910190F081E02D0995F0CFDF91D8
:10014000CF911F910F91089590E0FC01EC55FF4F66
:10015000249180579F4FFC018491882399F090E06F
:10016000880F991FFC01EA57FF4FA591B491FC013C
:10017000E458FF4F859194918FB7F894EC91E22B5E
:10018000EC938FBF0895CF93DF93E091E202ADE14E
:10019000B2E081E08E1740F4ED011196998128813B
:1001A00092279C938F5FF6CFF0E0E45EFD4F808155
:1001B00090911D02892780931D02DF91CF910895B0
:1001C000E091E202AE2FB0E0A45EBD4F8C91909121
:1001D0001D02892780931D02E150F0E0E35EFD4F90
:1001E00082E0ED31F80729F090818291892781839F
:1001F000F7CF0895EF92FF920F931F93CF93DF9362
:100200008C01EB017C01E40EF11C0E151F0581F041
:100210008091DF029091E002D8016D918D01DC01A7
:10022000ED91FC910190F081E02D09958993EDCF3E
:10023000DF91CF911F910F91FF90EF900895AF92B2
:10024000BF92CF92DF92EF92FF920F931F93CF93C3
:10025000DF936C017B018B01040F151FEB015E0125
:10026000AE18BF08C017D10759F06991D601ED91BA
:10027000FC910190F081E02DC6010995892B79F759
:10028000C501DF91CF911F910F91FF90EF90DF900B
:10029000CF90BF90AF900895FC01538D448D252FD2
:1002A00030E0842F90E0821B930B541710F0CF9610
:1002B000089501970895FC01918D828D981761F042
:1002C000A28DAE0FBF2FB11D5D968C91928D9F5F59
:1002D0009F73928F90E008958FEF9FEF0895FC0138
:1002E000918D828D981731F0828DE80FF11D858DEB
:1002F00090E008958FEF9FEF0895FC01918D228D7E
:10030000892F90E0805C9F4F821B91098F73992702
:1003100008958DE392E00E947D0121E0892B09F48C
:1003200020E0822F089580E090E0892B29F00E9440
:10033000890181110C9400000895FC01A48DA80F7F
:10034000B92FB11DA35ABF4F2C91848D90E0019617
:100350008F739927848FA689B7892C93A089B18937
:100360008C91837080648C93938D848D981306C0D8
:100370000288F389E02D80818F7D80830895EF923C
:10038000FF920F931F93CF93DF93EC0181E0888F4F
:100390009B8D8C8D98131AC0E889F989808185FF1F
:1003A00015C09FB7F894EE89FF896083E889F989C1
:1003B00080818370806480839FBF81E090E0DF91C3
:1003C000CF911F910F91FF90EF900895F62E0B8D16
:1003D00010E00F5F1F4F0F731127E02E8C8D8E11D1
:1003E0000CC00FB607FCFACFE889F989808185FF38
:1003F000F5CFCE010E949D01F1CFEB8DEC0FFD2FCB
:10040000F11DE35AFF4FF0829FB7F8940B8FEA89F2
:10041000FB8980818062CFCFCF93DF93EC01888D01
:100420008823B9F0AA89BB89E889F9898C9185FD6F
:1004300003C0808186FD0DC00FB607FCF7CF8C91FD
:1004400085FFF2CF808185FFEDCFCE010E949D0117
:10045000E9CFDF91CF91089590E0FC01E859FF4F7B
:100460002491FC01EC55FF4F3491FC01E057FF4F04
:10047000E491EE23C9F0222339F0233001F1A8F4EE
:10048000213019F1223029F1F0E0EE0FFF1FE4587E
:10049000FF4FA591B4918FB7F894EC91611126C0EC
:1004A00030953E233C938FBF08952730A9F0283024
:1004B000C9F0243049F7809180008F7D03C080917E
:1004C00080008F7780938000DFCF84B58F7784BDE5
:1004D000DBCF84B58F7DFBCF8091B0008F77809389
:1004E000B000D2CF8091B0008F7DF9CF3E2BDACF14
:1004F00061E08091DC020C942C0260E08091DC02CF
:100500000C942C020F931F93CF93C82F8B010E9442
:100510007D028091DF029091E0026C2F6062DC012D
:10052000ED91FC910190F081E02D099565E0C80105
:100530000E948700CF911F910F910C9478020F9326
:100540001F93CF93DF93C82FD62F0E947D020AED11
:1005500012E0D80115968D919C916C2F6062DC01A0
:10056000ED91FC910190F081E02D0995F8018581D4
:100570009681DC01ED91FC910190F081E02D6D2FD1
:100580000995DF91CF911F910F910C9478021F93E1
:10059000CF93DF93182FEB010E947D028091DF0241
:1005A0009091E002DC01ED91FC910190F081E02D51
:1005B000612F099541E0BE01CE010E94FA00DF9152
:1005C000CF911F910C947802CF93DF931F92CDB7F8
:1005D000DEB7BE016F5F7F4F87E00E94C70289814F
:1005E0000F90DF91CF91089560E08091DB020C9431
:1005F0002C02CF93DF93CAEDD2E018820E94F4025E
:100600006BE080E00E949F0261E089810E942C02E1
:1006100060E387E0DF91CF910C949F023FB7F8949D
:100620008091160290911702A0911802B0911902C0
:1006300026B5A89B05C02F3F19F00196A11DB11D3D
:100640003FBFBA2FA92F982F8827BC01CD01620F79
:10065000711D811D911D42E0660F771F881F991F34
:100660004A95D1F708950895CF93CFB7F894809124
:100670001002811124C0EAE9F0E08491EEEAF0E092
:100680009491E82FF0E0EE0FFF1FEA57FF4FA5917E
:10069000B491EC91E92321F461E08AE00E942C02FC
:1006A0008AE00E94A4008CB580618CBD8CB580640A
:1006B0008CBD8DE00E94A4008BE00E94A40080917C
:1006C00010028F5F80931002CFBF8CB5837F8CBDEB
:1006D0008CB58C7F81608CBD8DB58E7F8DBDCF91AB
:1006E00008956EBD00000DB407FEFDCF8EB50895D0
:1006F000FC0101900020E9F73197AF01481B590B2D
:10070000BC018DE392E00C941F01CF93DF930E9414
:100710007803EC0182EA91E00E9478038C0F9D1F20
:10072000DF91CF910895CF92DF92EF92FF920F93D6
:100730001F93CF93DF93CDB7DEB7A1970FB6F89491
:10074000DEBF0FBECDBF282F30E050E040E019A241
:100750008E010F5D1F4F8AE0C82ED12CE12CF12CA9
:10076000CA01B901A70196010E94C508605DF801A0
:1007700062938F01211531054105510589F73097A5
:10078000C9F0CF010E9478038C0182EA91E00E94B7
:100790007803800F911FA1960FB6F894DEBF0FBEAD
:1007A000CDBFDF91CF911F910F91FF90EF90DF9020
:1007B000CF90089510E000E0E8CF1F920F920FB69F
:1007C0000F9211242F933F934F935F936F937F93D7
:1007D0008F939F93AF93BF93EF93FF938DE392E03B
:1007E0000E949D01FF91EF91BF91AF919F918F91D9
:1007F0007F916F915F914F913F912F910F900FBE1D
:100800000F901F9018951F920F920FB60F92112400
:100810002F938F939F93EF93FF93E0914D02F0916D
:100820004E028081E0915302F091540282FD1BC080
:100830009081809156028F5F8F73209157028217AB
:1008400041F0E0915602F0E0E35CFD4F958F80931C
:100850005602FF91EF919F918F912F910F900FBEB4
:100860000F901F9018958081F4CF1F920F920FB6B2
:100870000F9211242F933F938F939F93AF93BF9326
:100880008091120290911302A0911402B09115026E
:100890003091110223E0230F2D3758F50196A11D49
:1008A000B11D209311028093120290931302A09322
:1008B0001402B09315028091160290911702A09134
:1008C0001802B09119020196A11DB11D8093160264
:1008D00090931702A0931802B0931902BF91AF91A1
:1008E0009F918F913F912F910F900FBE0F901F906E
:1008F000189526E8230F0296A11DB11DD2CF1092A4
:10090000400210923F0288EE93E0A0E0B0E08093B6
:10091000410290934202A0934302B093440284E9BF
:1009200091E090933E0280933D0285EC90E090939D
:100930004A028093490284EC90E090934C028093A9
:100940004B0280EC90E090934E0280934D0281EC3C
:1009500090E09093500280934F0282EC90E090934D
:1009600052028093510286EC90E09093540280935F
:10097000530210925602109257021092580210928F
:10098000590288E08093DB0287E08093DC0281E0FB
:100990008093DD0280E18093DE021092E0021092EB
:1009A000DF0280E480937C0080917A0080648093F1
:1009B0007A0080917A0086FDFCCF8091780060916A
:1009C0007900762F682F072E000C880B990B611584
:1009D00071058105910511F00E948A0880E68093D7
:1009E000E10280E28093E2020895CF93DF931F92A9
:1009F000CDB7DEB7789484B5826084BD84B581605C
:100A000084BD85B5826085BD85B5816085BD8091D9
:100A10006E00816080936E00109281008091810051
:100A20008260809381008091810081608093810049
:100A3000809180008160809380008091B10084600B
:100A40008093B1008091B00081608093B00080916C
:100A50007A00846080937A0080917A00826080932B
:100A60007A0080917A00816080937A0080917A0088
:100A7000806880937A001092C100E0914D02F0915D
:100A80004E0282E08083E0914902F0914A02108296
:100A9000E0914B02F0914C0280E18083109255026C
:100AA000E0915102F091520286E08083E0914F0282
:100AB000F0915002808180618083E0914F02F0913B
:100AC0005002808188608083E0914F02F091500253
:100AD000808180688083E0914F02F0915002808194
:100AE0008F7D808385EA91E00E94850389E0809371
:100AF000DB028AE08093DC0280E091E09093E002E8
:100B00008093DF0289E00E94A4008091DC020E94B1
:100B1000A4000E94F4020E9478028091DF0290916A
:100B2000E002DC01ED91FC910280F381E02D09955A
:100B300081E08093DD0280E28093DE0261E085E067
:100B40000E949F026091DE0281E10E949F026091FB
:100B5000DE0282E10E949F020E94F9020E947D0251
:100B60008091DF029091E002DC01ED91FC91019017
:100B7000F081E02D62EE09950E9478026AEB71E047
:100B80008AE00E9482026AEB71E080E10E948202A8
:100B90000E94F40260EC71E08BE00E94820261E04E
:100BA0008091DB020E942C0286EC91E00E94780387
:100BB0008091DB020E94930381ED91E00E94780313
:100BC0008091DC020E9493038DED91E00E947803F6
:100BD0008091DD020E94930389EE91E00E948503DB
:100BE000812C912C540193947724739466246394FC
:100BF0000E94E40286FF4EC00E947D028091DF02C7
:100C00009091E002DC01ED91FC910190F081E02DEA
:100C100061E609954091DE026DE172E0CB010E9430
:100C2000FA000E94780260E487E00E949F028091AF
:100C30003C02882309F49DC00E94E0004DB75EB7D6
:100C40007091E202EDB7FEB7E71BF1090FB6F89419
:100C5000FEBF0FBEEDBF8DB79EB701960DE112E04E
:100C6000382FFC01D8012E2F231B271708F44AC068
:100C700022E031E0ADE1B2E060E0761709F445C072
:100C8000F901F1909F01FC01EF0DF11DE081ED9361
:100C90006F5FF3CFBE016F5F7F4F87E10E94C70296
:100CA000898180FFA9CF8DE392E00E947D01892B8D
:100CB00009F492C180911C02811164C08DE392E01D
:100CC0000E945B0180931B0270921C0270921A02B8
:100CD00080911B02843211F410921A028DE392E08B
:100CE0000E947D0110911A02892B09F051C0E12F59
:100CF000F0E0E35EFD4F80E21F3108F058C08193C1
:100D00001F5FFACF2D912193AECF0FB6F8945EBF3F
:100D10000FBE4DBF0E94E0002091E2023091E1023F
:100D20008091E402EDE1F2E090E0291791F0A2E277
:100D3000B1E080E0381751F05D918F5F408154132E
:100D4000F9CF808381E09F5F3196EFCF108280E002
:100D5000FACF8093E402D8018D918D01FD01319786
:100D6000815E8083ECE3F2E0EA17FB07A1F71092C3
:100D70003C0282E092E00E9478038DE192E00E94C2
:100D8000850391CF80911B02843209F49DCF96CFC9
:100D90001F3178F48DE392E00E945B01E12FF0E0D7
:100DA000E35EFD4F80831F5F10931A0297CF10936D
:100DB0001A0289E092E00E947803E0911A02F0E0C2
:100DC000E35EFD4F108280911B02843211F080930C
:100DD0001D028DE192E00E94850380911B02843206
:100DE00009F480C09DE1C92E92E0D92EF6018081E0
:100DF00090EE980F903600F58F51808331968DE3F9
:100E000092E08E179F0799F7512C8091E2025816B5
:100E1000A8F5052D10E0035E1D4FD801EC918091DF
:100E2000E1028E1758F0EE2349F0F0E0EF5DFE4F3F
:100E300080818C935394E9CF1082E0CF1092E4022A
:100E40008091E402811115C00E943B08A501940124
:100E50000E949308862F6093E3026092E402E2E22C
:100E6000F1E09191891751F3B1E0E634FB07C9F73E
:100E7000E7CF8091E302F8018083DCCF0E94C300BA
:100E80002DB73EB74091E2028DB79EB7841B910902
:100E90000FB6F8949EBF0FBE8DBF01968C01DC018A
:100EA000582F6A2F681B641788F082E091E0602F4A
:100EB000651B641780F4FC01A191CF01F8016191D9
:100EC0008F01B0E0A35EBD4F6C93F1CFF60161914D
:100ED0006F016D93E6CF0FB6F8943EBF0FBE2DBFE6
:100EE0000E94C3000E94E4028091DA02882331F05C
:100EF0000E94E4028073C1F31092DA020E94F402AD
:100F00007092DA026AE080E00E949F020E947D02F5
:100F10008091DF029091E002DC01ED91FC91019063
:100F2000F081E02D61EE09950E9478020E947D0219
:100F30008091DF029091E002DC01ED91FC91019043
:100F4000F081E02D60EA09956091DE028DE192E08A
:100F50000E9487000E94780261E08091DB020E947B
:100F60002C028091DA02882331F00E94E40280731F
:100F7000C1F30E94F9020E940E031B012C018AE0BA
:100F8000C82ED12CE12CF12C0E940E03621973099A
:100F900084099509683E734081059105A8F3B1E085
:100FA000CB1AD108E108F108E8EE2E0EE3E03E1E70
:100FB000411C511CC114D104E104F10429F780E063
:100FC00090E0892B09F414CE0E948901882309F44A
:100FD0000FCE0E9400000CCE10921C02CCCF8F923C
:100FE0009F92AF92BF92CF92DF92EF92FF92CF93F8
:100FF000DF93EC01688179818A819B81611571059C
:101000008105910521F464E279ED8BE597E02DE10E
:1010100033EF41E050E00E94930849015A019B01DF
:10102000AC01A7EAB1E40E94B2086B017C01ACEE0E
:10103000B4EFA50194010E94C008C60ED71EE81E99
:10104000F91EF7FE06C081E0C81AD108E10880E861
:10105000F80AC882D982EA82FB82C701B6019F776B
:10106000DF91CF91FF90EF90DF90CF90BF90AF9046
:101070009F908F9008958F929F92AF92BF92CF9240
:10108000DF92EF92FF9260918201709183018091D3
:10109000840190918501611571058105910521F407
:1010A00064E279ED8BE597E02DE133EF41E050E02C
:1010B0000E94930849015A019B01AC01A7EAB1E4DF
:1010C0000E94B2086B017C01ACEEB4EFA501940163
:1010D0000E94C008C60ED71EE81EF91EF7FE06C005
:1010E00081E0C81AD108E10880E8F80AC0928201BC
:1010F000D0928301E0928401F0928501C701B6018C
:101100009F77FF90EF90DF90CF90BF90AF909F9030
:101110008F9008956093820170938301809384017E
:10112000909385010895052E97FB1EF400940E946C
:10113000AA0857FD07D00E94C50807FC03D04EF44B
:101140000C94AA0850954095309521953F4F4F4FEC
:101150005F4F089590958095709561957F4F8F4F63
:101160009F4F08950E94E708A59F900DB49F900D92
:10117000A49F800D911D11240895B7FF0C94B2080F
:101180000E94B208821B930B0895A1E21A2EAA1B9B
:10119000BB1BFD010DC0AA1FBB1FEE1FFF1FA21727
:1011A000B307E407F50720F0A21BB30BE40BF50B24
:1011B000661F771F881F991F1A9469F760957095AD
:1011C000809590959B01AC01BD01CF010895A29F30
:1011D000B001B39FC001A39F700D811D1124911D0B
:1011E000B29F700D811D1124911D0895EE0FFF1FF8
:0C11F0000590F491E02D0994F894FFCFD5
:1011FC008A0104151A080B1009121E16020C0F1D79
:10120C001F070E01001817141B061C0A13110519D1
:10121C000D03A7F1D92A82C8D8FE434D98558CE20C
:10122C00B3471711542F2D0558F56BD68807999293
:10123C0048336241F30D23E55F30D1ED610C4B0275
:10124C0035398184B814A29CB45A67CAE9C5B0C4B4
:10125C00158A9BF6F7E8A1D3A5D5E45BFA6CC351CC
:10126C0020AEE1066DFF341E19FD3650B78F3A0FD4
:10127C00C02C010000000000000071033403330394
:10128C0000000000BF011F014C010C027D015B013D
:10129C006F010D0A00496E697469616C697A696E37
:1012AC006720616E74656E6E61006E72663032001E
:1012BC006E7266303100202043452070696E3A20F2
:1012CC0000202043534E2070696E3A2000202043AA
:1012DC0068616E6E656C3A2000456E6420696E69BB
:1012EC007469616C697A696E6720616E74656E6E83
:1012FC00610048696D202D2000596F75202D20004C
:00000001FF
